:020000040000FA
:030000000200D328
:030033000207C5FC
:03004B000205D9D2
:03006B0002070980
:03007B0002076217
:100083000205A100000080FB1200E2B90003020098
:10009300CDE490010178CB79018002F0A3D8FCD99B
:1000A300FA9001CBAA82AB839000E57811790180A5
:1000B30015E493A3AC82AD838A828B83F0A3AA82D7
:1000C300AB838C828D83D8E9D9E712093912008674
:1000D30075D0007581BF75100175110102008B7910
:1000E3000122FF00000000000000000000000000EB
:1000F3000000E0F608A3E0F608A3E0F608A3E0F6A4
:1001030022E6F008A3E6F008A3E6F008A3E6F0224F
:10011300CAC0E0E6F0A308DAFAD0E0FA22700422BB
:10012300600D18C6C333C608C633C6D5E0F418221B
:10013300C0D0251010AF08F510500205118008F546
:100143001050020511D2AFD0D0222510F58210AF86
:1001530008F510400215118008F51040021511D260
:10016300AF851183222510F582E43511F58322E44E
:10017300732510C582C0E0E51134FFC583C0E0E5F7
:1001830010C3958224F9F8E4C5A8858311858210EC
:10019300C5A8E8CEF0A3E520F0A37808E608F0A30D
:1001A300DEFAEFF0A3E58124FBF8E608F0A3E60806
:1001B300F0A30808E608F0A3E608F0A3158115816B
:1001C300D0E0FED0E0F815811581E8C0E0EEC0E094
:1001D30022851183851082E0A3FEE0A3F520780831
:1001E300E0A3F608DFFAE0A3FFE0A3C0E0E0A3C0CA
:1001F300E0E0A3C0E0E0A3C0E0E4C5A885821085E9
:100203008311C5A8D083D08222C0D02510C582C057
:10021300E0E51134FFC583C0E0E510C3958224F304
:1002230010AF08858311858210800885831185822C
:1002330010D2AFC8F0A3E9F0A3EAF0A3EBF0A379DF
:1002430008E709F0A3D8FAECF0A3EDF0A3EEF0A3CE
:10025300EFF0A3D0E0F0A3D0E0F0A3D0E0F0A3E56B
:1002630020F0A3E5F0F0A322851183851082E0C07E
:10027300E0A3E0F9A3E0FAA3E0FBA37808E0F60823
:10028300A3DFFAE0FCA3E0FDA3E0FEA3E0FFA3E00D
:10029300C0E0A3E0C0E0A3E0F5D0A3E0F520A3E035
:1002A300A3F5F0E4C5A8858311858210C5A8D08283
:1002B300D083D0E0F8D0E03274028000C0E0F404D0
:1002C30012014DD0E012011322D083D082C5F0E495
:1002D30093A3C5F0C395F0F5F0E493A3C395F04061
:1002E30005E5F0048001E475F002A42582F582E5BA
:1002F300F03583F583E493A3C0E0E493C0E022C028
:1003030082C08312057ED2AF79017A0A7B0112057E
:100313006690010AE0C2E7F06405703879051203BC
:10032300E15004D2F08002C2F0A2F0E492E0900126
:10033300D3F090010FE0A2E740030203D990010D2F
:10034300E0FA900101E06A60030203D974019001AD
:10035300020203D8E024F59001D0F090010AE0F9FD
:100363001203E15004D2F08002C2F0A2F0E492E062
:100373009001D3F0900112E0F8A3E0F99001CCE8EA
:10038300F0A3E9F09001D17414F0A37401F090018B
:10039300D0E0F83395E0F9E82414F8E93401F9885A
:1003A300828983E09001D4F088828983A3E0A2E765
:1003B300501C9001CBE0FA90010DE06A60109001AF
:1003C3000BE054DF6441700674019001D5F0900195
:1003D3000DE09001CBF0C2AF12058E02059C7A0BA3
:1003E3007B0112056690010BE0A2E52274F5120170
:1003F300748A828B8312053DE9640170047901805C
:100403007CC2AFA882A983900108E8F0A3E9F09029
:1004130001D1E4F0A3F07401900103F09001D778C7
:10042300081200F5900104780812010475F0051212
:1004330007B9A3A3A3A3E0A424D490618F1207B8A0
:10044300E0F8A3E0F9E8906174F0E99061751207B0
:10045300B8A3A3E0F8A3E0F9E8906172F0E9906132
:1004630073F0A2AFE492E0FAC2AF90018A7402F093
:10047300A37403F0EAA2E092AFD2AF79007F040243
:1004830001D4748055C6FA53BEFBE59DA2E550FA2C
:10049300E59DA2E240F400740169700774494AF5CE
:1004A300C68005E970028AC6E5C6FAE59EFBEA6BDB
:1004B30070F943BE0422E59EA2E64003790122E9D6
:1004C300700553C67F8008740169700343C680E5D5
:1004D300C6FAE59EFBEA6B70F9790022EBC313FBC6
:1004E300EA13FAEAF8EBF974FF28FA74FF39FB749C
:1004F30000687003740069601300000000000000CE
:100503000000000000000000000080D72274F812F1
:100513000174EAFEEBFFEEF8EFF974FF28FE74FFB7
:1005230039FF740068700374006960097AE87B031B
:100533001204DF80E17F010201D4C082C083906195
:1005430089E04460F074D5906190F074099061FA89
:10055300F074159061B2F0E49061AEF012058E79FB
:10056300008036C082C083800DE5D98A828B83F0F8
:10057300A3AA82AB8319E970F0801EC082C0839066
:1005830061A3E0C2E6F0539AFE800EC082C083905E
:1005930061A3E0D2E6F0439A01D083D08222C0E087
:1005A30074F212020CA2AFE492E0FEC2AFE5E9A23C
:1005B300E6501990018AE07002A3E0600990018A75
:1005C3001207BC120172759B0053E9BFEEA2E092C1
:1005D300AF7F0102026BC0E074F212020C90018C37
:1005E300E07002A3E0600990018C1207BC12017253
:1005F30080DFC292C280C2F989F9A2F950FC0000DF
:100603000000D29222C292D280C2F989F9A2F95093
:10061300FC80EBEEC0E053F4FBD29243FE0453F3B1
:10062300FED28043FD0179151205F579501205F5C7
:10063300790F120608790E1205F579251205F57959
:100643001C1205F57A157B0012051079801205F549
:100653007E3079201206081EEE70F779C01205F578
:100663007E4079001206081EEE70F779291205F50F
:10067300D0E0FE2279011208717902120871790320
:10068300120871790412098680EA79001204B9E923
:100693006010790112048579001204B9E96003122C
:1006A3000677790012048553F4FEC29043FE01538A
:1006B300F4FDC29143FE0253F4EFC29443FE105380
:1006C300F3FDC28143FD0253F3FD53FDFD438F024E
:1006D30053F5FE53FFFE43F70143F34043F1024357
:1006E300F48043F44043F420E59EA2E0E492E02446
:1006F3000FFA75FB8075F80074204AF5FC75FA5300
:10070300120616D2AF22C0E074F112020CC2C5E584
:1007130089603C7E00750801750900EE78081201B6
:1007230020AF08E5895F6020EEC333F8E433F912A4
:100733000757E07002A3E060091207571207BC12C3
:100743000172EFF45589F5890EEEC3940840C67F14
:100753000202026BE8248EF582E93401F58322C09C
:10076300E074F112020CC2EBE58A603C7E0075086E
:1007730001750900EE7808120120AF08E58A5F6071
:1007830020EEC333F8E433F91207ADE07002A3E0BF
:1007930060091207AD1207BC120172EFF4558AF516
:1007A3008A0EEEC3940840C680A5E8249EF582E92C
:1007B3003401F58322F0900108E0F8A3E0F5838883
:1007C3008222C0E074F112020CC2E8E58B603C7E29
:1007D30000750801750900EE7808120120AF08E5DD
:1007E3008B5F6020EEC333F8E433F9120811E07035
:1007F30002A3E060091208111207BC120172EFF4A0
:10080300558BF58B0EEEC3940540C6020752E824C0
:10081300AEF582E93401F58322C082C083E9120276
:10082300CC010344083008340838083C08C29080DF
:1008330010C291800CC2948008C28174019001B8E7
:10084300F002059CC082C083E91202CC01036E084A
:100853005B085F0863086708D290800FD291800B12
:10086300D2948007D281E49001B8F002059CC08243
:10087300C083E91202CC0103A40885088C089108FF
:100883009808639001E590801863900280F7639065
:1008930010E590800C638002E5809001B8E064016C
:1008A300F002059C74F71201749001B974EFF0A380
:1008B30074BEF07AB97B011203EFE964017003128D
:1008C30006777401900103F075E1EC75E1E3805064
:1008D30075086775090078081202BB9001D1E0FC26
:1008E300A3E0FD7ABF7B011209917402120133E484
:1008F3009001D5F0D2AF9001D0E0FAC394675003D2
:10090300EA601D790112081C7A2C7B01120510790B
:100913000112084779021208477A2C7B011205104D
:100923009001D5E060FAC2AF9001D0E0FAC39467BA
:10093300509E8A08809DE49001C9F09001CAF0900E
:1009430001BB7407F0A37420F0E49001BEF012061B
:100953008D12053DE9640170031206777E1079015B
:1009630012087179021209861EEE70F279011208DB
:100973001C7902120847740B9001BDF01208A712EC
:100983000677221208717A327B001205102274F75F
:100993001201747409120168E0FEA3E0FFEAF8EBA8
:1009A300F980188C828D83E088828983F0A3A882E2
:1009B300A9838C828D83A3AC82AD838E088F097447
:1009C300FF25081E74FF3509FFE5087002E509706D
:0609D300D27F020201D4F4
:04000005000000D324
:00000001FF
