:020000040000FA
:030000000200D328
:03003300020BD5E8
:03006B00020B196C
:03007B00020B7EF7
:100083000207A000000080FB1200E2B90003020097
:10009300CDE490010178E879018002F0A3D8FCD97E
:1000A300FA9001E8AA82AB839000E5786D7902802B
:1000B30015E493A3AC82AD838A828B83F0A3AA82D7
:1000C300AB838C828D83D8E9D9E712117C12008629
:1000D30075D0007581BF75100175110102008B7910
:1000E3000122434831312000434831322000434844
:1000F3003133200043483134200043483135200058
:1001030043483136200043483137200043483138D3
:10011300200043483139200043483230200043480F
:10012300323120004348323220004348323320002A
:1001330043483234200043483235200043483236A6
:100143002000323432300032343330003234333131
:10015300003235323000323533300032353331003E
:100163003235313000323531310031313130003107
:10017300313131002D2D2D2D00202020434378785F
:10018300787820282029002020200000000000008B
:10019300000000000000000000000000000000005C
:1001A30000000000002020205449204C50570053E9
:1001B3007065637472756D20416E6C002064426DCE
:1001C30000020001000003070E0E1C191B1B1B1B62
:1001D300191C0E0E0703181E0703181C0600000641
:1001E3001C1803071E18000000000000001F000079
:1001F300000000001F1F00000000001F1F1F000061
:1002030000001F1F1F1F0000001F1F1F1F1F0000D4
:100213001F1F1F1F1F1F001F1F1F1F1F1F1F1F1F0A
:100223001F1F1F1F1F1FE801EE01F401FA01000247
:1002330006020C02120218021E0224022A023002D3
:1002430036023C024202000000000A000000E066A1
:10025300701008A3E066700A08A3E066700408A3A0
:10026300E06622C3E09608A3E09608A3E09608A3FD
:10027300E096A2D265D03322E4CFC0E0E4CEC0E062
:10028300E4CDC0E0E4CCC0E075F020C3E633F6086B
:10029300E633F608E633F608E633F6181818EC33B7
:1002A300FCED33FDEE33FEEF33FFC3EC9709ED971F
:1002B30009EE9709EF97191919400FFFEC97FC09FD
:1002C300ED97FD09EE97FE191906D5F0BEECF70977
:1002D300EDF709EEF709EFF7191919D0E0FCD0E0B3
:1002E300FDD0E0FED0E0FF221203531818181202CB
:1002F3007B1203421919192212034219191908080A
:1003030008E618181820E7E012027B1203531818A6
:100313001822090909E719191920E7DC080808E672
:1003230018181820E70302027B1203531818181237
:10033300027B12035318181812034219191922E4E5
:10034300C397F709E497F709E497F709E497F722C6
:10035300E4C396F608E496F608E496F608E496F6FF
:1003630022E0F608A3E0F608A3E0F608A3E0F622ED
:10037300E6F008A3E6F008A3E6F008A3E6F022CA35
:10038300C0E0E6F0A308DAFAD0E0FA22CAC0E0E05F
:10039300A3C582CCC582C583CDC583F0A3C582CC5A
:1003A300C582C583CDC583DAE6D0E0CA22C3E4980B
:1003B300F8E499F91203F18026C3E49AFAE49BFB6B
:1003C300E920E7E91203F1E498F8E499F922C3E498
:1003D30098F8E499F91203F1E498F8E499F9C3E47D
:1003E3009AFAE49BFB22EB20E7CFE920E7E0B90090
:1003F30010BB0008E88AF084F8AAF022E4FBC8FAEC
:1004030022EB70227B10C833C8C933C9335007C3EA
:100413009AC3DBF280069A50012ADBEAC833F4C898
:10042300C933F4C9FA2275F008E4C833C8C933C91B
:1004330033C99AC99B5004C92AC93BD5F0ECFBC800
:1004430033F4C8E4C9FA22700422600D18C6C3331A
:10045300C608C633C6D5E0F41822251010AF08F538
:1004630010400215118008F51040021511D2AF2279
:10047300C0D0251010AF08F510500205118008F503
:100483001050020511D2AFD0D0222510F58210AF43
:1004930008F510400215118008F51040021511D21D
:1004A300AF851183222510F582E43511F58322E40B
:1004B300732510C582C0E0E51134FFC583C0E0E5B4
:1004C30010C3958224F9F8E4C5A8858311858210A9
:1004D300C5A8E8CEF0A3E520F0A37808E608F0A3CA
:1004E300DEFAEFF0A3E58124FBF8E608F0A3E608C3
:1004F300F0A30808E608F0A3E608F0A31581158128
:10050300D0E0FED0E0F815811581E8C0E0EEC0E050
:1005130022851183851082E0A3FEE0A3F5207808ED
:10052300E0A3F608DFFAE0A3FFE0A3C0E0E0A3C086
:10053300E0E0A3C0E0E0A3C0E0E4C5A885821085A5
:100543008311C5A8D083D08222C0D02510C582C014
:10055300E0E51134FFC583C0E0E510C3958224F3C1
:1005630010AF0885831185821080088583118582E9
:1005730010D2AFC8F0A3E9F0A3EAF0A3EBF0A3799C
:1005830008E709F0A3D8FAECF0A3EDF0A3EEF0A38B
:10059300EFF0A3D0E0F0A3D0E0F0A3D0E0F0A3E528
:1005A30020F0A3E5F0F0A322851183851082E0C03B
:1005B300E0A3E0F9A3E0FAA3E0FBA37808E0F608E0
:1005C300A3DFFAE0FCA3E0FDA3E0FEA3E0FFA3E0CA
:1005D300C0E0A3E0C0E0A3E0F5D0A3E0F520A3E0F2
:1005E300A3F5F0E4C5A8858311858210C5A8D08240
:1005F300D083D0E0F8D0E032740480047402800029
:10060300C0E0F40412048DD0E012038222D083D020
:1006130082C5F0E493A3C5F0C395F0F5F0E493A38A
:10062300C395F04005E5F0048001E475F002A425CC
:1006330082F582E5F03583F583E493A3C0E0E49388
:10064300C0E022D083D082CCC0E0E493A360061242
:1006530006701470FAE493A3600612068F1470FAFE
:10066300D0E0FCE493A3C0E0E493C0E022C0E0E464
:1006730093A3D39C5010E493A3C39C400AD0E0D02F
:10068300E0D0E0020663A3A3A3D0E022C0E0E4939A
:10069300A36C7009D0E0D0E0D0E0020663A3A3D03E
:1006A300E022C008C009750801750900EB7808123B
:1006B300044AE50845F2F5F2C28DEA494BF5B6A2C4
:1006C3008D50FCE5BBFDE5BAFC750801750900EB2F
:1006D300780812044AE508F455F2F5F2ECFAEDFB5A
:1006E300D009D00822748055C6FA53BEFBE59DA2FB
:1006F300E550FAE59DA2E240F400740169700774C5
:10070300494AF5C68005E970028AC6E5C6FAE59E40
:10071300FBEA6B70F943BE0422E59EA2E64003792F
:100723000122E9700553C67F800874016970034391
:10073300C680E5C6FAE59EFBEA6B70F9790022EB09
:10074300C313FBEA13FAEAF8EBF974FF28FA74FF10
:1007530039FB7400687003740069601300000000C3
:100763000000000000000000000000000080D7220D
:1007730074F81204B4EAFEEBFFEEF8EFF974FF2805
:10078300FE74FF39FF740068700374006960097AAE
:10079300E87B0312074280E17F01020514C0E07485
:1007A300F212054CA2AFE492E0FEC2AFE5E9A2E685
:1007B3005019900101E07002A3E060099001011259
:1007C3000B751204B2759B0053E9BFEEA2E092AF22
:1007D3007F010205ABC292C280C2F989F9A2F95026
:1007E300FC00000000D29222C292D280C2F989F9A1
:1007F300A2F950FC80EB74F81204B4C292D2808048
:1008030012C2F98A828B83E0F5F9A3AA82AB83A291
:10081300F950FCECF8EDF974FF281C74FF39FDE87E
:100823007001E970DC00000000D2927F0102051420
:10083300C082C0838A828B8374FF29C454F04480AE
:10084300F91207D87C107D00AA82AB831207F90244
:1008530010DAEEC0E053F4FBD29243FE0453F3FEEE
:10086300D28043FD0179151207D879501207D87940
:100873000F1207EB790E1207D879251207D8791CC6
:100883001207D87A157B0012077379801207D87E76
:100893003079201207EB1EEE70F779C01207D87E6D
:1008A3004079001207EB1EEE70F779291207D8D0B2
:1008B300E0FE22EEC0E0120949D0E0FE2274F712F6
:1008C30004B4EA7001EB60307C008A828B83E060C1
:1008D30013C0E0120900D0E0F08A828B83A3AA82BE
:1008E300AB8380061209007420F00CECC394104013
:1008F300D97A037B011208337F020205148C08E5C1
:10090300082403F582E43401F5832274F51204B458
:10091300EAFEEBFFE933333354F844C0F91207D846
:1009230075080085080AEE250AF582EF3400F58381
:10093300E0F91207EB0508E508C3940840E57F04D6
:100943000205140208B6EBFE74FF29C454F02A44CE
:1009530080F91207D8EEF91207EB227901120D4242
:100963007902120D427903120D427904120D427A73
:10097300327B0012077380E3790012071CE96010D1
:1009830079011206E8790012071CE9600312095E77
:1009930079001206E853F4FEC29043FE0153F4FDBE
:1009A300C29143FE0253F4EFC29443FE1053F3FD8E
:1009B300C28143FD0253F3FD53FDFD438F02121128
:1009C3006F43F10243F48043F44043F420E59EA2D5
:1009D300E0E492E0240FFA75FB8075F80074204A76
:1009E300F5FC75FA53120855D2AF2274F71204B40A
:1009F3008A828B83A3A3E0FC601675080175090046
:100A03008A828B83A3E0780812044AE5086C6005A8
:100A130079FF020ACF8A828B83E012061000021349
:100A23000A2A0A610A980AECF455F3F5F38A828BD1
:100A330083A3A3A3E06401701F8A828B83A3A3A370
:100A4300A3E064017005EC45808004ECF45580F567
:100A530080EC45FDF5FD8072ECF455FD80F6ECF479
:100A630055F4F5F48A828B83A3A3A3E06401701F7A
:100A73008A828B83A3A3A3A3E064017005EC459052
:100A83008004ECF45590F590EC45FEF5FE803BECCC
:100A9300F455FE80F6ECF455F5F5F58A828B83A3C5
:100AA300A3A3E06401701D8A828B83A3A3A3A3E0A5
:100AB30064017005EC45A08004ECF455A0F5A0ECAE
:100AC30045FF8004ECF455FFF5FF79000208FBC0F5
:100AD30082C0838A828B83E01206100002150BE822
:100AE3000AF90A070B8A828B83A3A3E0F45589F5DD
:100AF3008979000210DA8A828B83A3A3E0F4558AF2
:100B0300F58A80ED8A828B83A3A3E0F4558BF58B62
:100B130080DF79FF80DDC0E074F112054CC2C5E5CA
:100B23008960487E00750801750900EE7808120493
:100B33004AAF08E5895F602CEEC333F8E433F9E884
:100B43002413F582E93401F583E07002A3E0600E1B
:100B5300E82413F582E93401120B731204B2EFF4A3
:100B63005589F5890EEEC3940840BA7F020205AB9E
:100B7300F583E0F8A3E0F583888222C0E074F112E4
:100B8300054CC2EBE58A60487E00750801750900D3
:100B9300EE780812044AAF08E58A5F602CEEC3338F
:100BA300F8E433F9E82423F582E93401F583E070AE
:100BB30002A3E0600EE82423F582E93401120B73EB
:100BC3001204B2EFF4558AF58A0EEEC3940840BAC4
:100BD3008099C0E074F112054CC2E8E58B60487E51
:100BE30000750801750900EE780812044AAF08E59C
:100BF3008B5F602CEEC333F8E433F9E82433F582DA
:100C0300E93401F583E07002A3E0600EE82433F5D4
:100C130082E93401120B731204B2EFF4558BF58B96
:100C23000EEEC3940540BA020B6EC082C083A2AF1E
:100C3300E492E0FCC2AFE91206100005730C4D0C00
:100C43005F0C640C690C730C6E0C90013DEAF0A30D
:100C5300EBF0ECA2E092AF79000210DA90013F8052
:100C6300EC90014180E790014380E290014780DDF1
:100C7300ECA2E092AF790180E0439A0243AC0179A0
:100C8300002274F71204B4E9FE7B067A107980120D
:100C930006A58B09A909747F59F9E4C9F8C39428F7
:100CA300E494004028C3E8943CE494005003098092
:100CB3001CC3E8944AE4940050030980F1C3E89408
:100CC30054E49400500509090980027904EE69701F
:100CD300B60208FBC082C083120C85E9120610001D
:100CE300043F0D1D0DF00CFF0C0E0D2C0D90013F5C
:100CF300E07002A3E0604590013F803A900141E03B
:100D03007002A3E06036900141802B900143E070B4
:100D130002A3E06027900143801C90013DE0700234
:100D2300A3E0601890013D800D900147E07002A39D
:100D3300E06009900147120B751204B20210DAC089
:100D430082C083E91206100103750D560D5D0D6215
:100D53000D690D639001E590801863900280F7633D
:100D63009010E590800C638002E580900149E06477
:100D730001F00210DA74F11204B474FB12045D740E
:100D8300011204A8EAF0A3EBF0A3ECF0A3EDF07AD0
:100D93004A7B0174011204A8C082C08390034C787B
:100DA30008120364D083D08278081202665022743A
:100DB30001851082851183F01204A8780812036458
:100DC300780812035374011204A87808120373807D
:100DD30008E4851082851183F074011204A8780C4D
:100DE3001203649003507808120364780C79081294
:100DF3000315E50824308A828B83F0A3AA82AB8390
:100E030074011204A8780C1203649003507808123A
:100E13000364780C790812031574011204A8780C82
:100E230012037374011204A8C082C08390034C7828
:100E330008120364D083D0827808120251709A8515
:100E43001082851183E0600B742D8A828B83F0A35B
:100E53000AAB83E4120E8E784A790180198A828B59
:100E630083E0FC88828983E0120E8EEC888289837A
:100E7300F0A3A882A983C3E89AE99B40E07A4A7B5E
:100E83000174051204737F080205148A828B83F0B0
:100E9300EA24FF1AEB34FFFB2274F51204B474D472
:100EA30012045D8A088B09851082851183AC82AD9B
:100EB3008375830275827F740E12038F740E12047E
:100EC300A8AC82AD8375830275828D741E12038F65
:100ED30090624AE0120646000A012C0F02FC0E1132
:100EE300320F81200F840E0F85020F89080F912680
:100EF3000FA5140FB51A0F380F7C487D02803A7C7A
:100F03004D7D0280347C527D02802E7C577D028091
:100F1300287C5C7D0280227C617D02801C7C667D56
:100F23000280167C6B7D0280107C707D02800A7CBF
:100F3300757D0280047C7A7D02750A04750B007846
:100F43000A1205FF74071204A8AA82AB8312146C59
:100F53007402120473906249E0C4540F2430C0E059
:100F6300740B1204A8D0E0F0AA08AB091214508A3B
:100F73000A8B0BAE0AAF0B740E1204A8AA82AB83C2
:100F8300121450EA2EF8EB3FF9C3E89411E99400E8
:100F9300500BAC08AD09AA82AB8312141A7ACC7B2E
:100FA30002790012090E7AD47B02790112090E7AB2
:100FB300DC7B02790212090E7AE47B0279031209BF
:100FC3000E851082851183AA82AB8379011208C032
:100FD300740E1204A8AA82AB8379021208C07AABFA
:100FE3007B0279031208C07B007A0079011209465B
:100FF3007B017A0079021209467B027A0179011298
:1010030009467B037A017902120946742C12047390
:1010130002094174F21204B4890E8A0C8B0DECFEA2
:10102300EDFF740E1204A87808120364AA08AB0932
:10103300AC0AAD0B120D788A088B09A808A9097AA6
:1010430000E50C7002E50D6020850C82850D83E0C0
:101053006017C0E01210C1D0E0F0850C82850D83CB
:10106300A385820C85830D804088828983E0601389
:10107300C0E01210C1D0E0F088828983A3A882A9BE
:10108300838026EE7001EF601A8E828F83E06013F7
:10109300C0E01210C1D0E0F08E828F83A3AE82AF86
:1010A3008380061210C17420F00AEAC394104091A1
:1010B3007A567B01A90E1208C07F070205148A081D
:1010C300E5082456F582E43401F58322C082C08307
:1010D300900166E06401F0D083D08222C082C08395
:1010E300900166E0600E900167E004F0E0C39410A5
:1010F3004002E4F080E1C082C083900166E0600DAD
:10110300900167E07004740F8002E014F080C874EB
:10111300F81204B412116F7AC77B021209EE538CD2
:10112300F7A2AFE492E0FEC2AF90013374D7F0A30D
:10113300740CF07AC77B02120AD2EEA2E092AF7A65
:10114300CF7B107900120C2D7900120C7C7ADF7B97
:10115300107903120C2D7903120C7C7AF97B107928
:1011630002120C2D7902120C7C02082E53F5FE5349
:10117300FFFE43F70143F34022E4900166F0750E4E
:1011830003900167F012097B906189E04460F07479
:10119300D5906190F074099061FAF074159061B282
:1011A300F0E49061AEF09061A3E0D2E6F0439A01DF
:1011B300D2907AB57B02120E9C7AB87B0B1207731E
:1011C300121112740C906189F07E008E087509006B
:1011D3007403780812044AE50824ECFAE50934029A
:1011E300FBEEF912090E0EEEC3940840DE750F00F4
:1011F30075080075F005E508A4240B90618FF07560
:10120300E1EC75E1E3906199E060FA906189E0D2E5
:10121300E4F07AD07B07120742906198E0FA75E117
:10122300EF75E1EC906189E0C2E4F0850F0A85086F
:101233000C750D007403780C12044A1213EAEAF0D9
:101243000508E508C3941040AA7508007E80750957
:101253000085090C85080A750B007403780A1204CB
:101263004AE50A2468F8E50B3401F9E50C12140287
:10127300EEC39AA2D265D033501E85090A85080CA5
:10128300750D007403780C12044AE50C2468F8E524
:101293000A28E439E0FE8001EE3395E0FF0509E515
:1012A30009C3940840ABEE242FFEEF3400FFC39430
:1012B30000A2D265D03350047E008010C3EE946F39
:1012C300EF9400A2D265D03340047E6E7F00740297
:1012D300650E700478118002781A8E0A8F0BE885E8
:1012E3000AF0A4C8AAF0850BF0A42AF97A6E7B0051
:1012F3001203E9880A750900800CEAC39B14FBAA50
:10130300081209460509E509C3950E503AAA0A755C
:10131300F00974FF250EC39509A4FB74012509F98F
:10132300EBC39A40097B20AA081208B680D68B0C1F
:101333007408250CFCE43400FDEA9CE49DC365D0ED
:101343003340B77B0780B80508E508C39410500302
:1013530002124F050FE50FC3940850030211F390D7
:101363000166E0607C7A80750E0275090085090AC2
:1013730012140C12044A1213EAE0FCEAC39CA2D230
:1013830065D033500E12140C12044A1213F51214C2
:10139300028001EA3395E0FB0509E509C39408409F
:1013A300CC74B72AF50874FF3BF5093395E0F50AC9
:1013B300F50B78081205FB7CC27D02900167E0C340
:1013C30033F8E433F9E8242CF582E93403F583E0B8
:1013D300FAA3E0FB790312101674041204730211CA
:1013E300F0750E030211F01213F528F582E439F5B6
:1013F3008322E50C2468F8E50D3401F9E50A222877
:10140300F582E439F583E0FA22900167E0F50C7583
:101413000D007403780C2274F81204B4EAF8EBF9A3
:101423008005A3AA82AB838A828B83E070F48C82CB
:101433008D83E0A3AC82AD838A828B83F0A3AA82DF
:10144300AB8370EAE8FAE9FB7F01020514C082C0AE
:10145300838A828B838001A3E070FCE582C39AFABE
:10146300E5839BFBD083D0822274F71204B4740902
:101473001204A8E0FEA3E0FFEAF8EBF98E088F0957
:1014830074FF25081E74FF3509FFE5087002E5099E
:1014930060358C828D83E0A3AC82AD838A828B839B
:1014A300F0A3AA82AB8370D4EEFCEFFD74FF2C1E75
:1014B30074FF3DFFEC7001ED600DE48A828B83F0D5
:1014C300A3AA82AB8380E1E8FAE9FB7F0202051459
:04000005000000D324
:00000001FF
